:0400000052EF00F0CB
:100008003C82FACF2DF0FBCF2EF0E1CF2FF0E2CFDC
:1000180030F0D9CF31F0DACF32F0F3CF33F0F4CF7C
:1000280034F0F2AC1AEF00F01CEF00F040EF00F0F3
:100038009DA021EF00F023EF00F02EEF00F09EA02E
:1000480028EF00F02AEF00F02EEF00F05CEC2DF026
:1000580040EF00F09DAA33EF00F035EF00F040EFDD
:1000680000F09EAA3AEF00F03CEF00F040EF00F0FD
:10007800CCEC2CF040EF00F034C0F4FF33C0F3FFB9
:1000880032C0DAFF31C0D9FF30C0E2FF2FC0E1FF34
:100098002EC0FBFF2DC0FAFF3C92110077EF2DF028
:100F0000000000803F000020410000C84200007A3D
:100F10004400401C460050C3470024744980961882
:100F20004B20BCBE4C286B6E4EF9021550EC78ADD0
:100F300060CAF249710000803FCDCCCC3D0AD72376
:100F40003C6F12833A17B7D138ACC52737BD378607
:100F50003595BFD63377CC2B325F708930FFE6DB17
:100F60002E08E53C1E6042A20D010000000A0000B0
:100F70000064000000E803000010270000A08601C4
:100F80000040420F008096980000E1F50500CA9AE3
:100F90003B2D25643A252E31662C252E3266000025
:100FA000000E0001C56F000EC46FB00EC26F000EC0
:100FB000C36F00EF0DF0250ED819D8B4E2EF07F09B
:100FC000E4EF07F0F0EF07F0ACC0D9FFADC0DAFFF7
:100FD000D8C0DFFFAC4BAD2BC44BC52B00EF0DF0E1
:100FE000000EC76F000EC66FAEC0F6FFAFC0F7FFB2
:100FF0000800F5502E0AD8A400EF08F002EF08F020
:1010000042EF08F0C78DAE4BAF2B000ED76F000E2E
:10101000D66F31EF08F0D6C060F0D7C061F0000E97
:101020000001636F0A0E626FBAEC2DF060C0D6F05B
:1010300061C0D7F0D00E0001BA6FFF0EBB6FAEC01B
:10104000F6FFAFC0F7FF0800F550BC6FBD6BBA519B
:10105000BC27BB51BD23BC51D627BD51D723AE4BB6
:10106000AF2BAEC0F6FFAFC0F7FF0800F55041EC64
:101070002DF0D8B03EEF08F040EF08F00BEF08F08D
:101080004CEF08F0000ED76F000ED66FC7894CEFFB
:1010900008F0C78569EF08F0AEC0F6FFAFC0F7FFF4
:1010A0000001AE4BAF2B0800F5CFD8F0D851000AA5
:1010B000D8B411EF0DF0640AD8B469EF08F0020A51
:1010C000D8B449EF08F00F0AD8B469EF08F000EF80
:1010D0000DF0070EC715D8B470EF08F072EF08F0E6
:1010E00009EF0CF0C7A977EF08F079EF08F07DEF72
:1010F00008F0000ED76F060ED66FC2C0D9FFC3C06E
:10110000DAFFDECFD2F0DECFD3F0DECFD4F0DECF09
:10111000D5F0040EC227000EC323D5BF94EF08F00C
:1011200092EF08F0A9EF08F0D2C060F0D3C061F0F0
:10113000D4C062F0D5C063F008EC2DF060C0D2F0EE
:1011400061C0D3F062C0D4F063C0D5F0030E0001DB
:10115000C613000EC96F000EC86FD2C060F0D3C0B6
:1011600061F0D4C062F0D5C063F0000E646F000E71
:10117000656F000E666F000E676F3EEC2AF000018F
:10118000D8B0C5EF08F0C7EF08F05BEF09F0D43531
:10119000D535820FC86FC96BFF0EC923C807D8A009
:1011A000C907C8C060F0C9C061F0000E636F030ECC
:1011B000626FBAEC2DF060C0C8F061C0C9F0C8C061
:1011C00066F0C9C067F0000E0001696F0A0E686F13
:1011D00082EC29F066C0C8F067C0C9F00001C9BF41
:1011E000F6EF08F0F4EF08F0F9EF08F0C807D8A020
:1011F000C907C8510008B1EC1DF087C0CAF088C00B
:10120000CBF089C0CCF08AC0CDF0CAC06EF0CBC0A4
:101210006FF0CCC070F0CDC071F0D2C072F0D3C00E
:1012200073F0D4C074F0D5C075F086EC19F06EC0C0
:10123000CAF06FC0CBF070C0CCF071C0CDF0CAC0A6
:1012400060F0CBC061F0CCC062F0CDC063F0000EA6
:101250000001646F000E656F800E666F3F0E676F52
:10126000FFEC28F00001D8B038EF09F03AEF09F0B0
:101270003FEF09F0C807D8A0C9075BEF09F0CAC063
:1012800060F0CBC061F0CCC062F0CDC063F0000E66
:10129000646F000E656F200E666F410E676FFFEC86
:1012A00028F00001D8A057EF09F059EF09F05BEFE3
:1012B00009F0C84BC92BD7BF69EF09F0D75107E137
:1012C0000D0ED65DD8B067EF09F069EF09F086EF33
:1012D00009F0D2C094F0D3C095F0D4C096F0D5C038
:1012E00097F0D65145EC21F087C098F088C099F06E
:1012F00089C09AF08AC09BF0C5EC14F094C0D2F07B
:1013000095C0D3F096C0D4F097C0D5F00001C9BF06
:1013100095EF09F0C95107E10A0EC85DD8B093EF07
:1013200009F095EF09F0D3EF09F0D2C060F0D3C017
:1013300061F0D4C062F0D5C063F0000E646F000E9F
:10134000656F000E666F000E676F3EEC2AF00001BD
:10135000D8B0ADEF09F0AFEF09F027EF0AF0D2C037
:1013600090F0D3C091F0D4C092F0D5C093F07BEC54
:1013700028F000019051911192119311D8A4C3EF5C
:1013800009F0C5EF09F027EF0AF0C9BFD1EF09F066
:10139000C95109E1020EC85DD8A0D1EF09F0D3EF21
:1013A00009F027EF0AF0CAC060F0CBC061F0CCC0F2
:1013B00062F0CDC063F05F0E646F700E656F890ED2
:1013C000666F400E676FFFEC28F00001D8B0EBEFBE
:1013D00009F0EDEF09F0F3EF09F0F70EC827FF0E63
:1013E000C923F7EF09F0F80EC827FF0EC923C8512B
:1013F000B1EC1DF087C0CAF088C0CBF089C0CCF03A
:101400008AC0CDF0D2C060F0D3C061F0D4C062F029
:10141000D5C063F0CAC064F0CBC065F0CCC066F044
:10142000CDC067F03BEC27F060C0CEF061C0CFF0DC
:1014300062C0D0F063C0D1F0000E0001D26F000E88
:10144000D36F000ED46F000ED56F63EF0AF0D2C0D9
:1014500090F0D3C091F0D4C092F0D5C093F07BEC63
:1014600028F090C0CEF091C0CFF092C0D0F093C0E1
:10147000D1F0D2C0A4F0D3C0A5F0D4C0A6F0D5C09E
:10148000A7F0CEC060F0CFC061F0D0C062F0D1C094
:1014900063F0000EA0EC22F060C0A8F061C0A9F0DB
:1014A00062C0AAF063C0ABF026EC2CF0A4C0D2F06E
:1014B000A5C0D3F0A6C0D4F0A7C0D5F0000E00019F
:1014C000C96F000EC86F010ED86FD851040D690E98
:1014D000F324F66E0F0EF420F76E0900F550CE5D82
:1014E0000900F550CF590900F550D0590900F550C1
:1014F000D159D8B07EEF0AF080EF0AF082EF0AF0FF
:101500008CEF0AF0D82B0A0ED819D8A48AEF0AF06B
:101510008CEF0AF065EF0AF0030EC615BA6F000EE5
:10152000C715BB6FBA51BB11D8B499EF0AF09BEF46
:101530000AF0F2EF0AF0ACC0D9FFADC0DAFF2D0E11
:10154000DF6EAC4BAD2BC44BC52BF2EF0AF0CEC017
:1015500060F0CFC061F0D0C062F0D1C063F0D8516C
:10156000040D690EF324F66E0F0EF420F76E0900D9
:10157000F5CF64F00900F5CF65F00900F5CF66F00E
:101580000A00F5CF67F094EC2AF060C0CAF061C0A1
:10159000CBF062C0CCF063C0CDF0CAC06DF0CBC060
:1015A0006EF0CCC06FF0CDC070F00A0E0001716F0C
:1015B000000E726F000E736F000E746FE7EC2AF06E
:1015C0006DC0CAF06EC0CBF06FC0CCF070C0CDF073
:1015D0000001CA51300FACC0D9FFADC0DAFFDF6ED9
:1015E000A1EF0AF0D807D829D8A4F9EF0AF0FBEF49
:1015F0000AF0A7EF0AF00AEF0BF0ACC0D9FFADC0BC
:10160000DAFF300EDF6EAC4BAD2BC44BC52BC807D9
:10161000D8A0C907C9BF17EF0BF0C95106E1C8052B
:10162000D8B015EF0BF017EF0BF0FDEF0AF0D7BFB6
:1016300023EF0BF0D75109E1090ED65DD8A023EFB7
:101640000BF025EF0BF029EF0BF0080ED86F2BEF06
:101650000BF0D6C0D8F0D851D65F000ED75BD8516A
:10166000D8B435EF0BF037EF0BF041EF0BF0ACC017
:10167000D9FFADC0DAFF2E0EDF6EAC4BAD2BC44BE5
:10168000C52BD851B1EC1DF087C0BEF088C0BFF0AB
:1016900089C0C0F08AC0C1F0D2C072F0D3C073F06C
:1016A000D4C074F0D5C075F0BEC06EF0BFC06FF08E
:1016B000C0C070F0C1C071F086EC19F06EC090F03F
:1016C0006FC091F070C092F071C093F07BEC28F085
:1016D00090C0CEF091C0CFF092C0D0F093C0D1F0C6
:1016E000E5EF0BF0CEC060F0CFC061F0D0C062F08B
:1016F000D1C063F0D851040D690EF324F66E0F0EBD
:10170000F420F76E0900F5CF64F00900F5CF65F01D
:101710000900F5CF66F00A00F5CF67F094EC2AF0E7
:1017200060C0CAF061C0CBF062C0CCF063C0CDF045
:10173000CAC06DF0CBC06EF0CCC06FF0CDC070F001
:101740000A0E0001716F000E726F000E736F000EB3
:10175000746FE7EC2AF06DC0CAF06EC0CBF06FC0BA
:10176000CCF070C0CDF00001CA51300FACC0D9FF31
:10177000ADC0DAFFDF6EAC4BAD2BC44BC52BCEC07A
:101780006DF0CFC06EF0D0C06FF0D1C070F0D85106
:10179000040D690EF324F66E0F0EF420F76E0900A7
:1017A000F5CF71F00900F5CF72F00900F5CF73F0B5
:1017B0000A00F5CF74F0E7EC2AF06DC0CEF06EC0F1
:1017C000CFF06FC0D0F070C0D1F00001D807D82999
:1017D000D8A4EDEF0BF0EFEF0BF072EF0BF0FEEF94
:1017E0000BF0ACC0D9FFADC0DAFF300EDF6EAC4BF2
:1017F000AD2BC44BC52BD607D8A0D707D651D711D0
:10180000D8A405EF0CF007EF0CF0F1EF0BF000EFB0
:101810000DF0C2C0D9FFC3C0DAFFDECFCEF0DDCFFE
:10182000CFF0000ECFBFFF0ED06FD16F020EC227D8
:10183000000EC323D1BF21EF0CF01FEF0CF02BEFF4
:101840000CF0030EC613D11FD01FCF1FCE6D000E9C
:10185000CF23D023D123D651D711D8A432EF0CF007
:1018600034EF0CF041EF0CF0CE51CF11D011D1116B
:10187000D8A43DEF0CF03FEF0CF041EF0CF0D64B4D
:10188000D72B010ED86FD851040D690EF324F66ED4
:101890000F0EF420F76E0900F550CE5D0900F550EB
:1018A000CF590900F550D0590900F550D159D8B099
:1018B0005CEF0CF05EEF0CF060EF0CF06AEF0CF0F8
:1018C000D82B0A0ED819D8A468EF0CF06AEF0CF0E8
:1018D00043EF0CF0D851BA6FBB6BD651BA5DBB5118
:1018E000800ABC6FD751800ABC59D8B07AEF0CF08F
:1018F0007CEF0CF07EEF0CF093EF0CF0D851BA6F48
:10190000BB6BBA51D65DD751800ABC6FBB51800A00
:10191000BC59D8B08EEF0CF090EF0CF093EF0CF0B8
:10192000D8C0D6F0D76B030EC615BA6F000EC71518
:10193000BB6FBA51BB11D8B4A0EF0CF0A2EF0CF002
:10194000F3EF0CF0ACC0D9FFADC0DAFF2D0EDF6EA7
:10195000AC4BAD2BC44BC52BF3EF0CF0D6C0BAF09B
:10196000D7C0BBF0D890BA37BB37D890BA37BB379F
:10197000690EBA25F66E0F0EBB21F76E0900F5CF82
:1019800064F00900F5CF65F00900F5CF66F00A00B4
:10199000F5CF67F0CEC060F0CFC061F0D0C062F08C
:1019A000D1C063F094EC2AF060C06DF061C06EF0BD
:1019B00062C06FF063C070F00A0E0001716F000E1C
:1019C000726F000E736F000E746FE7EC2AF0000167
:1019D0006D51300FD86FACC0D9FFADC0DAFFD8C0A1
:1019E000DFFFA8EF0CF0D607D8A0D707D62906E16D
:1019F000D729D8A4FEEF0CF000EF0DF0AEEF0CF0FD
:101A0000AEC0F6FFAFC0F7FFAE4BAF2B0800F5CF6F
:101A1000D8F0D851D8A40FEF0DF011EF0DF0DBEF97
:101A200007F0ACC0D9FFADC0DAFF000EDF6EC4C056
:101A3000ACF0C5C0ADF012000001606F000E0001F7
:101A4000616FC5EF10F0010EE8CF10F120EF11F03B
:101A5000000EE8CF10F120EF11F021EEA1F0DF50E1
:101A6000D8A435EF0DF037EF0DF020EF11F021EE97
:101A700010F0DF50D8B43FEF0DF041EF0DF020EF44
:101A800011F0010EE8CFA1F1898A000EE8CFAEF186
:101A9000000EE8CFAFF1000EE8CFB0F1000EE8CFB6
:101AA000B1F1000EE8CFB2F1000EE8CFB3F1000EB5
:101AB000E8CFB4F1000EE8CFB5F120EF11F021EE40
:101AC000A1F0DF50D8B467EF0DF069EF0DF020EF13
:101AD00011F021EE10F0DF50D8B471EF0DF073EF7C
:101AE0000DF020EF11F0000EE8CFA1F1899A000E61
:101AF000E8CFB2F1000EE8CFB3F1000EE8CFB4F1B9
:101B0000000EE8CFB5F1000EE8CFAEF1000EE8CF41
:101B1000AFF1000EE8CFB0F1000EE8CFB1F120EF49
:101B200011F021EEA2F0DF50D8A499EF0DF09BEF59
:101B30000DF020EF11F021EE10F0DF50D8B4A3EF3C
:101B40000DF0A5EF0DF020EF11F0010EE8CFA2F19E
:101B50008986000EE8CFBCF1000EE8CFBDF1000E83
:101B6000E8CFBEF1000EE8CFBFF1000EE8CFB8F12C
:101B7000000EE8CFB9F1000EE8CFBAF1000EE8CFC1
:101B8000BBF120EF11F021EEA2F0DF50D8B4CBEF83
:101B90000DF0CDEF0DF020EF11F021EE10F0DF5041
:101BA000D8B4D5EF0DF0D7EF0DF020EF11F0000E07
:101BB000E8CFA2F18996000EE8CFBCF1000EE8CF85
:101BC000BDF1000EE8CFBEF1000EE8CFBFF1000E70
:101BD000E8CFB8F1000EE8CFB9F1000EE8CFBAF1C6
:101BE000000EE8CFBBF120EF11F021EEA3F0DF50A3
:101BF000D8A4FDEF0DF0FFEF0DF020EF11F021EE76
:101C000010F0DF50D8B407EF0EF009EF0EF020EF20
:101C100011F0010EE8CFA3F18984000EE8CFC6F1E0
:101C2000000EE8CFC7F1000EE8CFC8F1000EE8CFF4
:101C3000C9F1000EE8CFC2F1000EE8CFC3F1000EEB
:101C4000E8CFC4F1000EE8CFC5F120EF11F021EE8E
:101C5000A3F0DF50D8B42FEF0EF031EF0EF020EFED
:101C600011F021EE10F0DF50D8B439EF0EF03BEF59
:101C70000EF020EF11F0000EE8CFA3F18994000ED2
:101C8000E8CFC6F1000EE8CFC7F1000EE8CFC8F1EB
:101C9000000EE8CFC9F1000EE8CFC2F1000EE8CF88
:101CA000C3F1000EE8CFC4F1000EE8CFC5F120EF7C
:101CB00011F021EEA4F0DF50D8A461EF0EF063EF35
:101CC0000EF020EF11F021EE10F0DF50D8B46BEFE2
:101CD0000EF06DEF0EF020EF11F0010EE8CFA4F141
:101CE0008982000EE8CFD0F1000EE8CFD1F1000ECE
:101CF000E8CFD2F1000EE8CFD3F1000EE8CFCCF15F
:101D0000000EE8CFCDF1000EE8CFCEF1000EE8CF07
:101D1000CFF120EF11F021EEA4F0DF50D8B493EF13
:101D20000EF095EF0EF020EF11F021EE10F0DF50E5
:101D3000D8B49DEF0EF09FEF0EF020EF11F0000EE3
:101D4000E8CFA4F18992000EE8CFD0F1000EE8CFE1
:101D5000D1F1000EE8CFD2F1000EE8CFD3F1000EA2
:101D6000E8CFCCF1000EE8CFCDF1000EE8CFCEF1F8
:101D7000000EE8CFCFF120EF11F021EEA5F0DF50FB
:101D8000D8A4C5EF0EF0C7EF0EF020EF11F021EE52
:101D900010F0DF50D8B4CFEF0EF0D1EF0EF020EFFF
:101DA00011F0010EE8CFA5F18980000EE8CFDAF13D
:101DB000000EE8CFDBF1000EE8CFDCF1000EE8CF3B
:101DC000DDF1000EE8CFD6F1000EE8CFD7F1000E1E
:101DD000E8CFD8F1000EE8CFD9F120EF11F021EED5
:101DE000A5F0DF50D8B4F7EF0EF0F9EF0EF020EFCA
:101DF00011F021EE10F0DF50D8B401EF0FF003EF37
:101E00000FF020EF11F0000EE8CFA5F18990000E41
:101E1000E8CFDAF1000EE8CFDBF1000EE8CFDCF11D
:101E2000000EE8CFDDF1000EE8CFD6F1000EE8CFCE
:101E3000D7F1000EE8CFD8F1000EE8CFD9F120EFAE
:101E400011F021EEA6F0DF50D8A429EF0FF02BEF10
:101E50000FF020EF11F021EE10F0DF50D8B433EF87
:101E60000FF035EF0FF020EF11F0010EE8CFA6F1E3
:101E70008A86000EE8CFE4F1000EE8CFE5F1000E0F
:101E8000E8CFE6F1000EE8CFE7F1000EE8CFE0F191
:101E9000000EE8CFE1F1000EE8CFE2F1000EE8CF4E
:101EA000E3F120EF11F021EEA6F0DF50D8B45BEFA4
:101EB0000FF05DEF0FF020EF11F021EE10F0DF508A
:101EC000D8B465EF0FF067EF0FF020EF11F0000EC0
:101ED000E8CFA6F18A96000EE8CFE4F1000EE8CF35
:101EE000E5F1000EE8CFE6F1000EE8CFE7F1000ED5
:101EF000E8CFE0F1000EE8CFE1F1000EE8CFE2F12B
:101F0000000EE8CFE3F120EF11F021EEA7F0DF5053
:101F1000D8A48DEF0FF08FEF0FF020EF11F021EE2E
:101F200010F0DF50D8B497EF0FF099EF0FF020EFDB
:101F300011F0010EE8CFA7F18A84000EE8CFEEF190
:101F4000000EE8CFEFF1000EE8CFF0F1000EE8CF81
:101F5000F1F1000EE8CFEAF1000EE8CFEBF1000E50
:101F6000E8CFECF1000EE8CFEDF120EF11F021EE1B
:101F7000A7F0DF50D8B4BFEF0FF0C1EF0FF020EFA4
:101F800011F021EE10F0DF50D8B4C9EF0FF0CBEF15
:101F90000FF020EF11F0000EE8CFA7F18A94000EA9
:101FA000E8CFEEF1000EE8CFEFF1000EE8CFF0F150
:101FB000000EE8CFF1F1000EE8CFEAF1000EE8CF15
:101FC000EBF1000EE8CFECF1000EE8CFEDF120EFE1
:101FD00011F021EEA8F0DF50D8A4F1EF0FF0F3EFED
:101FE0000FF020EF11F021EE10F0DF50D8B4FBEF2E
:101FF0000FF0FDEF0FF020EF11F0010EE8CFA8F188
:102000008A82000EE8CFF8F1000EE8CFF9F1000E59
:10201000E8CFFAF1000EE8CFFBF1000EE8CFF4F1C3
:10202000000EE8CFF5F1000EE8CFF6F1000EE8CF94
:10203000F7F120EF11F021EEA8F0DF50D8B423EF34
:1020400010F025EF10F020EF11F021EE10F0DF502E
:10205000D8B42DEF10F02FEF10F020EF11F0000E9C
:10206000E8CFA8F18A92000EE8CFF8F1000EE8CF91
:10207000F9F1000EE8CFFAF1000EE8CFFBF1000E07
:10208000E8CFF4F1000EE8CFF5F1000EE8CFF6F15D
:10209000000EE8CFF7F120EF11F021EE10F0DF5045
:1020A000D8B455EF10F057EF10F020EF11F0CD0E2F
:1020B000E8CF03F1CC0EE8CF04F1CC0EE8CF05F168
:1020C0003D0EE8CF06F1010EE8CF07F1000EE8CF94
:1020D00008F120EF11F021EE10F0DF50D8B473EFCB
:1020E00010F075EF10F020EF11F0000EE8CF03F1C3
:1020F000000EE8CF04F1000EE8CF05F13F0EE8CF67
:1021000006F1050EE8CF07F1000EE8CF08F120EF49
:1021100011F021EE10F0DF50D8B491EF10F093EFF2
:1021200010F020EF11F0CD0EE8CF03F1CC0EE8CF88
:1021300004F14C0EE8CF05F13E0EE8CF06F1020E99
:10214000E8CF07F1000EE8CF08F120EF11F021EE03
:1021500010F0DF50D8B4AFEF10F0B1EF10F020EF77
:1021600011F0000EE8CF03F1000EE8CF04F1800E6D
:10217000E8CF05F13F0EE8CF06F10A0EE8CF07F1F0
:10218000000EE8CF08F120EF11F060512A0AD8B410
:1021900023EF0DF0110AD8B428EF0DF07A0AD8B465
:1021A0002DEF0DF0030AD8B45FEF0DF0010AD8B49B
:1021B00091EF0DF0070AD8B4C3EF0DF0010AD8B4BF
:1021C000F5EF0DF0030AD8B427EF0EF0010AD8B4EA
:1021D00059EF0EF00F0AD8B48BEF0EF0010AD8B405
:1021E000BDEF0EF0030AD8B4EFEF0EF0010AD8B439
:1021F00021EF0FF0070AD8B453EF0FF0010AD8B45B
:1022000085EF0FF0030AD8B4B7EF0FF0010AD8B486
:10221000E9EF0FF01F0AD8B41BEF10F0010AD8B491
:102220004DEF10F0030AD8B46BEF10F0010AD8B4E8
:1022300089EF10F0070AD8B4A7EF10F020EF11F0E3
:10224000000E626FA10E6225D96EDA6A010EDA22E3
:10225000DF506113622B070E626531EF11F033EF2F
:1022600011F022EF11F06151120035503610D8B440
:102270003CEF11F03EEF11F04BEF11F002D84BEFB5
:1022800011F00500FA6E3550FD6E3650FE6EF850B6
:10229000FF6EFA50120020EEFEF0DF50D8B453EF7C
:1022A00011F055EF11F09DEF14F021EE09F0DE5022
:1022B000DE10D8A45EEF11F060EF11F09DEF14F086
:1022C000000E2C6EA10E2C24D96EDA6A010EDA22D1
:1022D000DF50D8B46EEF11F070EF11F088EF14F00A
:1022E0002C50D8A476EF11F078EF11F0F7EF11F041
:1022F000F50E036E920E25EC2DF03F0E286E550E56
:10230000E82EFED7282EFCD700F0920ECFEC2BF053
:102310002C500A0DAC0EF324D96E010EF420DA6EA7
:1023200005C0DEFF06C0DDFF2C500A0DAC0EF32405
:10233000D96E010EF420DA6EDECF28F0DDCF29F061
:1023400028C001F029C002F0036A046A000E7CEC88
:1023500023F001C00FF002C010F003C011F004C060
:1023600012F0080E136E390E146E220E156E3A0E10
:10237000166E9CEC1BF02C500A0DAE0EF324D96E99
:10238000010EF420DA6E0FC0DEFF10C0DEFF11C0B8
:10239000DEFF12C0DEFF2C500A0DB20EF324D96E00
:1023A000010EF420DA6EDECF01F0DECF02F0DECFD8
:1023B00003F0DECF04F003C105F004C106F005C14F
:1023C00007F006C108F026EC17F02C500A0DB20EEB
:1023D000F324D96E010EF420DA6E01C0DEFF02C0D4
:1023E000DEFF03C0DEFF04C0DEFF88EF14F02C0424
:1023F000D8A4FDEF11F0FFEF11F054EF12F0E50E4D
:10240000036E920E25EC2DF03F0E286E550EE82E31
:10241000FED7282EFCD700F0920ECFEC2BF02C50DC
:102420000A0DAC0EF324D96E010EF420DA6E05C04D
:10243000DEFF06C0DDFF2C500A0DAC0EF324D96E72
:10244000010EF420DA6EDECF28F0DDCF29F028C0AF
:1024500001F029C002F0036A046A000E7CEC23F04C
:1024600001C00FF002C010F003C011F004C012F060
:10247000080E136E390E146E220E156E3A0E166E7D
:102480009CEC1BF02C500A0DAE0EF324D96E010EFD
:10249000F420DA6E0FC0DEFF10C0DEFF11C0DEFFD9
:1024A00012C0DEFFCBEF11F0020E2C18D8A45BEFA8
:1024B00012F05DEF12F0B2EF12F0D50E036E920E35
:1024C00025EC2DF03F0E286E550EE82EFED7282E57
:1024D000FCD700F0920ECFEC2BF02C500A0DAC0E76
:1024E000F324D96E010EF420DA6E05C0DEFF06C0BB
:1024F000DDFF2C500A0DAC0EF324D96E010EF42032
:10250000DA6EDECF28F0DDCF29F028C001F029C037
:1025100002F0036A046A000E7CEC23F001C00FF0A5
:1025200002C010F003C011F004C012F0080E136EC8
:10253000390E146E220E156E3A0E166E9CEC1BF0C0
:102540002C500A0DAE0EF324D96E010EF420DA6E73
:102550000FC0DEFF10C0DEFF11C0DEFF12C0DEFFC5
:10256000CBEF11F0030E2C18D8A4B9EF12F0BBEF8B
:1025700012F010EF13F0C50E036E920E25EC2DF045
:102580003F0E286E550EE82EFED7282EFCD700F001
:10259000920ECFEC2BF02C500A0DAC0EF324D96E1A
:1025A000010EF420DA6E05C0DEFF06C0DDFF2C5000
:1025B0000A0DAC0EF324D96E010EF420DA6EDECFD4
:1025C00028F0DDCF29F028C001F029C002F0036A0D
:1025D000046A000E7CEC23F001C00FF002C010F082
:1025E00003C011F004C012F0080E136E390E146E01
:1025F000220E156E3A0E166E9CEC1BF02C500A0D36
:10260000AE0EF324D96E010EF420DA6E0FC0DEFF99
:1026100010C0DEFF11C0DEFF12C0DEFFCBEF11F0F5
:10262000040E2C18D8A417EF13F019EF13F06EEF67
:1026300013F0F50E036E900E25EC2DF03F0E286E74
:10264000550EE82EFED7282EFCD700F0900ECFECCA
:102650002BF02C500A0DAC0EF324D96E010EF42091
:10266000DA6E05C0DEFF06C0DDFF2C500A0DAC0E91
:10267000F324D96E010EF420DA6EDECF28F0DDCF20
:1026800029F028C001F029C002F0036A046A000E94
:102690007CEC23F001C00FF002C010F003C011F079
:1026A00004C012F0080E136E390E146E220E156E51
:1026B0003A0E166E9CEC1BF02C500A0DAE0EF32455
:1026C000D96E010EF420DA6E0FC0DEFF10C0DEFFFF
:1026D00011C0DEFF12C0DEFFCBEF11F0050E2C188B
:1026E000D8A475EF13F077EF13F0CCEF13F0E50EED
:1026F000036E900E25EC2DF03F0E286E550EE82E41
:10270000FED7282EFCD700F0900ECFEC2BF02C50EB
:102710000A0DAC0EF324D96E010EF420DA6E05C05A
:10272000DEFF06C0DDFF2C500A0DAC0EF324D96E7F
:10273000010EF420DA6EDECF28F0DDCF29F028C0BC
:1027400001F029C002F0036A046A000E7CEC23F059
:1027500001C00FF002C010F003C011F004C012F06D
:10276000080E136E390E146E220E156E3A0E166E8A
:102770009CEC1BF02C500A0DAE0EF324D96E010E0A
:10278000F420DA6E0FC0DEFF10C0DEFF11C0DEFFE6
:1027900012C0DEFFCBEF11F0060E2C18D8A4D3EF39
:1027A00013F0D5EF13F02AEF14F0D50E036E900E50
:1027B00025EC2DF03F0E286E550EE82EFED7282E64
:1027C000FCD700F0900ECFEC2BF02C500A0DAC0E85
:1027D000F324D96E010EF420DA6E05C0DEFF06C0C8
:1027E000DDFF2C500A0DAC0EF324D96E010EF4203F
:1027F000DA6EDECF28F0DDCF29F028C001F029C045
:1028000002F0036A046A000E7CEC23F001C00FF0B2
:1028100002C010F003C011F004C012F0080E136ED5
:10282000390E146E220E156E3A0E166E9CEC1BF0CD
:102830002C500A0DAE0EF324D96E010EF420DA6E80
:102840000FC0DEFF10C0DEFF11C0DEFF12C0DEFFD2
:10285000CBEF11F0070E2C18D8A431EF14F033EFA2
:1028600014F088EF14F0C50E036E900E25EC2DF0D9
:102870003F0E286E550EE82EFED7282EFCD700F00E
:10288000900ECFEC2BF02C500A0DAC0EF324D96E29
:10289000010EF420DA6E05C0DEFF06C0DDFF2C500D
:1028A0000A0DAC0EF324D96E010EF420DA6EDECFE1
:1028B00028F0DDCF29F028C001F029C002F0036A1A
:1028C000046A000E7CEC23F001C00FF002C010F08F
:1028D00003C011F004C012F0080E136E390E146E0E
:1028E000220E156E3A0E166E9CEC1BF02C500A0D43
:1028F000AE0EF324D96E010EF420DA6E0FC0DEFFA7
:1029000010C0DEFF11C0DEFF12C0DEFFCBEF11F002
:10291000070E2C18D8A48FEF14F091EF14F094EF59
:1029200014F0010EE8CF00F12C2A070E2C649BEF67
:1029300014F09DEF14F062EF11F021EE09F0DE2AA1
:10294000000EDD2221EE07F011EE09F0DE50E65C0C
:10295000DE50E658D8A0AFEF14F0B1EF14F0C4EF9A
:1029600014F0000EE8CF09F1000EE8CF0AF120EED6
:10297000FEF0DF50D8B4BFEF14F0C1EF14F0C4EF95
:1029800014F0010EE8CF01F1120000019751800B05
:10299000A06F97519725A26F96AFD1EF14F0D3EFA8
:1029A00014F0D4EF14F0A281A251D8B4DAEF14F0ED
:1029B000DCEF14F0F1EF14F0A229D8A4E2EF14F048
:1029C000E4EF14F0ECEF14F0000E946F000E956F2E
:1029D000000E966F000E976F968F000E976FF9EFAF
:1029E00014F0000E946F000E956F000E966F000E9F
:1029F000976F9B51800BA16FA051A119D8B403EF21
:102A000015F005EF15F006EF15F0A08D9B519B25F5
:102A1000A16F9AAF0EEF15F010EF15F011EF15F052
:102A2000A181A151D8B417EF15F019EF15F02EEFD1
:102A300015F0A129D8A41FEF15F021EF15F029EF0B
:102A400015F0000E986F000E996F000E9A6F000E31
:102A50009B6F9A8F000E9B6F36EF15F0000E986FEC
:102A6000000E996F000E9A6F000E9B6FA251A15D30
:102A7000D8B03DEF15F03FEF15F066EF15F0A0ADC3
:102A800044EF15F046EF15F048EF15F0800EA01B4F
:102A9000A2C0A3F0A1C0A2F0A3C0A1F094C0A3F073
:102AA00098C094F0A3C098F095C0A3F099C095F099
:102AB000A3C099F096C0A3F09AC096F0A3C09AF074
:102AC00097C0A3F09BC097F0A3C09BF0000EA36F2C
:102AD000A251A1C09CF09D6B9C5F000E9D5B9DBFB1
:102AE0007BEF15F09D5109E11A0E9C5DD8A07BEF9C
:102AF00015F07DEF15F0B4EF15F094519511961186
:102B00009711D8A486EF15F089EF15F0010E8AEF22
:102B100015F0000EA36F000E946F000E956F000E5F
:102B2000966F000E976FA1C0A2F0BDEF15F0A3A1A4
:102B30009CEF15F09EEF15F0A4EF15F0D890A3319F
:102B40000109A36FA6EF15F0D890A33394A1ABEFC2
:102B500015F0ADEF15F0AEEF15F0A38F9735973365
:102B6000963395339433A22BA151A25DD8A0BBEF2D
:102B700015F0BDEF15F097EF15F0A0BDC2EF15F001
:102B8000C4EF15F004EF16F0A251D8A4CAEF15F067
:102B9000CCEF15F0D6EF15F0000E946F000E956F88
:102BA000000E966F000E976F25EF17F0985194273F
:102BB000995195239A5196239B51972397A1E3EF1F
:102BC00015F0E5EF15F091EF16F0A3A1EAEF15F07F
:102BD000ECEF15F0F2EF15F0D890A3310109A36FD7
:102BE000F4EF15F0D890A33394A1F9EF15F0FBEFB3
:102BF00015F0FCEF15F0A38F973597339633953387
:102C00009433A22B91EF16F09851945D99519559F8
:102C10009A5196599751800A9C6F9B51800A9C59F2
:102C2000D8B015EF16F017EF16F042EF16F09451EA
:102C3000985D9C6F955199599D6F96519A599E6FC9
:102C400097519B599F6FFF0E9C25946FFF0E9D21FE
:102C5000956FFF0E9E21966FFF0E9F21976F800E3E
:102C6000A01BA36DA351D8A438EF16F03AEF16F0CD
:102C70004AEF16F0010E9427000E95239623972312
:102C80004AEF16F09851945F9951955B9A51965B73
:102C90009B51975B9451951196119711D8A453EFBE
:102CA00016F055EF16F08AEF16F0A351D8A45BEF9B
:102CB00016F05DEF16F08AEF16F0000E946F000E1E
:102CC000956F000E966F000E976F25EF17F0D89056
:102CD0009437953796379737A3AF71EF16F073EFA8
:102CE00016F074EF16F09481A3A179EF16F07BEF44
:102CF00016F07FEF16F0D880A33781EF16F0D8904A
:102D0000A337A251D8B487EF16F089EF16F08AEFF7
:102D100016F0A20796AF8FEF16F091EF16F067EF5F
:102D200016F0000EA16FA3AF98EF16F09AEF16F011
:102D3000B2EF16F0A3C09CF07F0E9C17D8B4A3EF9F
:102D400016F0A5EF16F0A9EF16F0010EA16FB2EF85
:102D500016F094A1AEEF16F0B0EF16F0B2EF16F049
:102D6000A5EF16F0A151D8B4B8EF16F0BAEF16F0EF
:102D7000E5EF16F0010E9427000E95239623972376
:102D800097A1C5EF16F0C7EF16F0E5EF16F094C067
:102D90009CF095C09DF096C09EF097C09FF09F3527
:102DA0009F339E339D339C339CC094F09DC095F01F
:102DB0009EC096F09FC097F0A229D8B4E2EF16F01B
:102DC000E4EF16F0E5EF16F0A22BA229D8B4EBEF52
:102DD00016F0EDEF16F0F5EF16F0A251D8A4F3EFD0
:102DE00016F0F5EF16F007EF17F0000E946F000ED7
:102DF000956F000E966F000E976FA251D8A403EF47
:102E000017F005EF17F007EF17F0000EA06FA2A163
:102E10000CEF17F00EEF17F011EF17F0968F12EF7F
:102E200017F0969FD890A231976FA0AF1AEF17F0C6
:102E30001CEF17F01DEF17F0978F94C094F095C01A
:102E400095F096C096F097C097F012000450800B52
:102E50000D6E045004240F6E03AE31EF17F033EF04
:102E600017F034EF17F00F800F50D8B43AEF17F087
:102E70003CEF17F051EF17F00F28D8A442EF17F0EE
:102E800044EF17F04CEF17F0000E016E000E026ECB
:102E9000000E036E000E046E038E000E046E59EFDA
:102EA00017F0000E016E000E026E000E036E000E93
:102EB000046E0850800B0E6E0D500E18D8B463EFE0
:102EC00017F065EF17F066EF17F00D8C0850082427
:102ED0000E6E07AE6EEF17F070EF17F071EF17F090
:102EE0000E800E50D8B477EF17F079EF17F08EEF11
:102EF00017F00E28D8A47FEF17F081EF17F089EFB5
:102F000017F0000E056E000E066E000E076E000E26
:102F1000086E078E000E086E96EF17F0000E056E15
:102F2000000E066E000E076E000E086E0F500E5C4F
:102F3000D8B09DEF17F09FEF17F0C6EF17F00DAC6C
:102F4000A4EF17F0A6EF17F0A8EF17F0800E0D1AF8
:102F50000FC010F00EC00FF010C00EF001C010F046
:102F600005C001F010C005F002C010F006C002F06C
:102F700010C006F003C010F007C003F010C007F047
:102F800004C010F008C004F010C008F0000E106E6D
:102F90000F500EC009F00A6A095E000E0A5A0ABEF6
:102FA000DBEF17F00A5009E11A0E095CD8A0DBEF3D
:102FB00017F0DDEF17F014EF18F0015002100310B6
:102FC0000410D8A4E6EF17F0E9EF17F0010EEAEFCE
:102FD00017F0000E106E000E016E000E026E000E55
:102FE000036E000E046E0EC00FF01DEF18F010A05F
:102FF000FCEF17F0FEEF17F004EF18F0D890103048
:103000000109106E06EF18F0D890103201A00BEFF6
:1030100018F00DEF18F00EEF18F0108E0434043293
:103020000332023201320F2A0E500F5CD8A01BEF80
:1030300018F01DEF18F0F7EF17F00DBC22EF18F0A5
:1030400024EF18F064EF18F00F50D8A42AEF18F00E
:103050002CEF18F036EF18F0000E016E000E026E25
:10306000000E036E000E046E85EF19F00550012668
:1030700006500222075003220850042204A043EF06
:1030800018F045EF18F0F1EF18F010A04AEF18F023
:103090004CEF18F052EF18F0D89010300109106E74
:1030A00054EF18F0D890103201A059EF18F05BEFF0
:1030B00018F05CEF18F0108E043404320332023240
:1030C00001320F2AF1EF18F00550015C065002584A
:1030D000075003580450800A096E0850800A0958A6
:1030E000D8B075EF18F077EF18F0A2EF18F0015094
:1030F000055C096E025006580A6E035007580B6EA5
:10310000045008580C6EFF0E0924016EFF0E0A20B1
:10311000026EFF0E0B20036EFF0E0C20046E800E5D
:103120000D1A106C1050D8A498EF18F09AEF18F000
:10313000AAEF18F0010E0126000E0222032204223B
:10314000AAEF18F00550015E0650025A0750035AC4
:103150000850045A0150021003100410D8A4B3EF11
:1031600018F0B5EF18F0EAEF18F01050D8A4BBEF44
:1031700018F0BDEF18F0EAEF18F0000E016E000E27
:10318000026E000E036E000E046E85EF19F0D890EB
:10319000013602360336043610AED1EF18F0D3EF05
:1031A00018F0D4EF18F0018010A0D9EF18F0DBEF81
:1031B00018F0DFEF18F0D8801036E1EF18F0D89053
:1031C00010360F50D8B4E7EF18F0E9EF18F0EAEF37
:1031D00018F00F0603AEEFEF18F0F1EF18F0C7EF9D
:1031E00018F0000E0E6E10AEF8EF18F0FAEF18F0AF
:1031F00012EF19F010C009F07F0E0916D8B403EFD2
:1032000019F005EF19F009EF19F0010E0E6E12EF2B
:1032100019F001A00EEF19F010EF19F012EF19F0EC
:1032200005EF19F00E50D8B418EF19F01AEF19F095
:1032300045EF19F0010E0126000E0222032204229E
:1032400004A025EF19F027EF19F045EF19F001C0A0
:1032500009F002C00AF003C00BF004C00CF00C34FB
:103260000C320B320A32093209C001F00AC002F0F6
:103270000BC003F00CC004F00F28D8B442EF19F0D3
:1032800044EF19F045EF19F00F2A0F28D8B44BEF8F
:1032900019F04DEF19F055EF19F00F50D8A453EF76
:1032A00019F055EF19F067EF19F0000E016E000EDE
:1032B000026E000E036E000E046E0F50D8A463EF72
:1032C00019F065EF19F067EF19F0000E0D6E0FA001
:1032D0006CEF19F06EEF19F071EF19F0038E72EFC9
:1032E00019F0039ED8900F30046E0DAE7AEF19F0EE
:1032F0007CEF19F07DEF19F0048E01C001F002C0DF
:1033000002F003C003F004C004F012000001715188
:10331000800B7A6F71517125806F70AF92EF19F049
:1033200094EF19F095EF19F080818051D8B49BEF9C
:1033300019F09DEF19F0B0EF19F08029D8A4A3EF90
:1033400019F0A5EF19F0ADEF19F0000E6E6F000E39
:103350006F6F000E706F000E716F708FB8EF19F005
:10336000000E6E6F000E6F6F000E706F000E716FAB
:103370007551800B7A1B755175257F6F74AFC3EF44
:1033800019F0C5EF19F0C6EF19F07F817F51D8B45D
:10339000CCEF19F0CEEF19F0E1EF19F07F29D8A4A6
:1033A000D4EF19F0D6EF19F0DEEF19F0000E726FBE
:1033B000000E736F000E746F000E756F748FE9EF5F
:1033C00019F0000E726F000E736F000E746F000E16
:1033D000756F7F51D8B4EFEF19F0F1EF19F0F9EFF5
:1033E00019F08051D8A4F7EF19F0F9EF19F003EFB5
:1033F0001AF0000E6E6F000E6F6F000E706F000EF1
:10340000716F9BEF1BF074516E03F3CF85F0F4CF17
:1034100086F085517B6F7C6B7D6B7E6B8651816FF7
:10342000826B836B846B73516F03F3CF85F0F4CFA2
:1034300086F085517B27000E7C237D237E238651D9
:103440008127000E82238323842372517003F3CFDC
:1034500085F0F4CF86F085517B27000E7C237D23F9
:103460007E2386518127000E8223832384237DC0FF
:103470007EF07CC07DF07BC07CF07B6B72516F0373
:10348000F3CF85F0F4CF86F085517B2786517C23DE
:10349000000E7D23000E7E2373516E03F3CF85F063
:1034A000F4CF86F085517B2786517C23000E7D2347
:1034B000000E7E237DC07EF07CC07DF07BC07CF062
:1034C0007B6B72516E03F3CF85F0F4CF86F085519C
:1034D0007B2786517C23000E7D23000E7E237451B2
:1034E0006F03F3CF85F0F4CF86F0855181278651A5
:1034F0008223000E8323000E842373517003F3CFC5
:1035000085F0F4CF86F08551812786518223000E05
:103510008323000E842374517003F3CF85F0F4CF1E
:1035200086F08551766F8651776F786B796B78C0AE
:1035300079F077C078F076C077F0766B7651812796
:103540007751822378518323795184237BC076F08D
:103550007CC077F07DC078F07EC079F0190EB6EFB0
:103560001AF0D8907933783377337633E82EB1EF89
:103570001AF076518127775182237851832379512C
:1035800084237DC07EF07CC07DF07BC07CF07B6BB3
:103590007F5180C076F0776B7627000E7723820EFE
:1035A0007625856FFF0E7721866FECEF1AF0D890A5
:1035B00081378237833784377EAFE1EF1AF0E3EF4C
:1035C0001AF0E4EF1AF08181D8907B377C377D3791
:1035D0007E378507D8A0860783AFF1EF1AF0F3EFA7
:1035E0001AF0D7EF1AF0000E7F6F7EAFFAEF1AF0E5
:1035F000FCEF1AF020EF1BF0FF0E7B15766FFF0E2D
:103600007C15776FFF0E7D15786F7F0E7E15796FB5
:103610007651771178117911D8B411EF1BF013EFAF
:103620001BF017EF1BF0010E7F6F20EF1BF081A145
:103630001CEF1BF01EEF1BF020EF1BF013EF1BF035
:103640007F51D8B426EF1BF028EF1BF04CEF1BF096
:10365000010E8127000E82238323842384A133EF6C
:103660001BF035EF1BF04CEF1BF081C076F082C0F1
:1036700077F083C078F084C079F079357933783386
:103680007733763376C081F077C082F078C083F0EC
:1036900079C084F0854B862B86BF57EF1BF086518F
:1036A00008E18529D8A057EF1BF059EF1BF063EF15
:1036B0001BF0000E816F000E826F800E836F7F0EF5
:1036C000846F91EF1BF086BF70EF1BF0865106E10F
:1036D0008505D8B06EEF1BF070EF1BF07CEF1BF090
:1036E000000E816F000E826F000E836F000E846FDC
:1036F000000E7A6F91EF1BF085C080F0FF0E8117EE
:10370000FF0E82177F0E8317000E841780A18BEFA8
:103710001BF08DEF1BF08EEF1BF0838FD890803164
:10372000846F7A51841381C06EF082C06FF083C0C1
:1037300070F084C071F012001250800B1B6E12509A
:103740001224216E11AEA7EF1BF0A9EF1BF0AAEF18
:103750001BF021802150D8B4B0EF1BF0B2EF1BF06A
:10376000C5EF1BF02128D8A4B8EF1BF0BAEF1BF06F
:10377000C2EF1BF0000E0F6E000E106E000E116EE9
:10378000000E126E118ECDEF1BF0000E0F6E000EAC
:10379000106E000E116E000E126E1650800B1B1A6A
:1037A00016501624206E15AED8EF1BF0DAEF1BF082
:1037B000DBEF1BF020802050D8B4E1EF1BF0E3EFEB
:1037C0001BF0F6EF1BF02028D8A4E9EF1BF0EBEF7D
:1037D0001BF0F3EF1BF0000E136E000E146E000EC4
:1037E000156E000E166E158EFEEF1BF0000E136E9A
:1037F000000E146E000E156E000E166E2050D8B41A
:1038000004EF1CF006EF1CF00EEF1CF02150D8A4C2
:103810000CEF1CF00EEF1CF018EF1CF0000E0F6EFA
:10382000000E106E000E116E000E126EB0EF1DF045
:1038300015500F02F3CF26F0F4CF27F026501C6E60
:103840001D6A1E6A1F6A2750226E236A246A256A2F
:1038500014501002F3CF26F0F4CF27F026501C2688
:10386000000E1D221E221F2227502226000E232278
:103870002422252213501102F3CF26F0F4CF27F093
:1038800026501C26000E1D221E221F2227502226F3
:10389000000E2322242225221EC01FF01DC01EF070
:1038A0001CC01DF01C6A13501002F3CF26F0F4CF99
:1038B00027F026501C2627501D22000E1E22000E27
:1038C0001F2214500F02F3CF26F0F4CF27F026501A
:1038D0001C2627501D22000E1E22000E1F221EC075
:1038E0001FF01DC01EF01CC01DF01C6A13500F02FB
:1038F000F3CF26F0F4CF27F026501C2627501D22A8
:10390000000E1E22000E1F2215501002F3CF26F0CB
:10391000F4CF27F02650222627502322000E2422FF
:10392000000E252214501102F3CF26F0F4CF27F019
:103930002650222627502322000E2422000E252264
:1039400015501102F3CF26F0F4CF27F02650176E52
:103950002750186E196A1A6A19C01AF018C019F09F
:1039600017C018F0176A1750222618502322195032
:1039700024221A5025221CC017F01DC018F01EC0AA
:1039800019F01FC01AF0190ECBEF1CF0D8901A32A4
:10399000193218321732E82EC6EF1CF017502226C3
:1039A00018502322195024221A5025221EC01FF01D
:1039B0001DC01EF01CC01DF01C6A205021C017F055
:1039C000186A1726000E1822820E1724266EFF0E84
:1039D0001820276E01EF1DF0D890223623362436AA
:1039E00025361FAEF6EF1CF0F8EF1CF0F9EF1CF0D7
:1039F0002280D8901C361D361E361F362606D8A0CB
:103A0000270624AE06EF1DF008EF1DF0ECEF1CF0CA
:103A1000000E206E1FAE0FEF1DF011EF1DF035EF01
:103A20001DF0FF0E1C14176EFF0E1D14186EFF0EF6
:103A30001E14196E7F0E1F141A6E175018101910CD
:103A40001A10D8B426EF1DF028EF1DF02CEF1DF052
:103A5000010E206E35EF1DF022A031EF1DF033EF87
:103A60001DF035EF1DF028EF1DF02050D8B43BEFCE
:103A70001DF03DEF1DF061EF1DF0010E2226000E3E
:103A800023222422252225A048EF1DF04AEF1DF015
:103A900061EF1DF022C017F023C018F024C019F008
:103AA00025C01AF01A341A3219321832173217C0D8
:103AB00022F018C023F019C024F01AC025F0264ABD
:103AC000272A27BE6CEF1DF0275008E12628D8A032
:103AD0006CEF1DF06EEF1DF078EF1DF0000E226E02
:103AE000000E236E800E246E7F0E256EA6EF1DF055
:103AF00027BE85EF1DF0275006E12604D8B083EFDE
:103B00001DF085EF1DF091EF1DF0000E226E000EEE
:103B1000236E000E246E000E256E000E1B6EA6EFA7
:103B20001DF026C021F0FF0E2216FF0E23167F0E79
:103B30002416000E251621A0A0EF1DF0A2EF1DF007
:103B4000A3EF1DF0248ED8902130256E1B50251236
:103B500022C00FF023C010F024C011F025C012F0D5
:103B6000120000018F6F00018FBFBBEF1DF0B9EF96
:103B70001DF0C1EF1EF08F6D8F51800A120FD8A07B
:103B8000C4EF1DF0C6EF1DF053EF1EF0000E696F7D
:103B90000A0E686F000E636F640E626F8F51606F64
:103BA000616B60BF6107E5EC29F060C066F061C041
:103BB00067F082EC29F0090E000166276651040DBA
:103BC000350EF324F66E0F0EF420F76E0900F5CFD4
:103BD00072F00900F5CF73F00900F5CF74F00A0018
:103BE000F5CF75F0000E696F640E686F8F51666FC8
:103BF000676B66BF670782EC29F0120E000166272B
:103C00006651040D350EF324F66E0F0EF420F76E98
:103C10000900F5CF6EF00900F5CF6FF00900F5CF80
:103C200070F00A00F5CF71F086EC19F06EC08BF0E1
:103C30006FC08CF070C08DF071C08EF08BC06EF0D4
:103C40008CC06FF08DC070F08EC071F0000E00015E
:103C5000636F0A0E626F8F51606F616B60BF6107A7
:103C6000E5EC29F000016051040D350EF324F66EE9
:103C70000F0EF420F76E0900F5CF72F00900F5CFB2
:103C800073F00900F5CF74F00A00F5CF75F086ECFB
:103C900019F06EC087F06FC088F070C089F071C0F5
:103CA0008AF0C4EF1FF08F51800A750FD8A05BEF28
:103CB0001EF05DEF1EF0ABEF1EF0000E696F0A0EF6
:103CC000686F8F51666F676B66BF670782EC29F07C
:103CD000090E000166276651040D350EF324F66EB9
:103CE0000F0EF420F76E0900F5CF6EF00900F5CF46
:103CF0006FF00900F5CF70F00A00F5CF71F0000EFB
:103D0000636F0A0E626F8F51606F616B60BF6107F6
:103D1000E5EC29F000016051040D350EF324F66E38
:103D20000F0EF420F76E0900F5CF72F00900F5CF01
:103D300073F00900F5CF74F00A00F5CF75F086EC4A
:103D400019F06EC087F06FC088F070C089F071C044
:103D50008AF0C4EF1FF08F51040D350EF324F66E78
:103D60000F0EF420F76E0900F5CF87F00900F5CFAC
:103D700088F00900F5CF89F00A00F5CF8AF0C4EF8A
:103D80001FF08F51800A120FD8A0C9EF1EF0CBEFA1
:103D90001EF058EF1FF0000E696F0A0E686F000EDC
:103DA000636F640E626F8F51606F616B60BF6107FC
:103DB000E5EC29F060C066F061C067F082EC29F0A4
:103DC000090E000166276651040D010EF324F66EFC
:103DD0000F0EF420F76E0900F5CF72F00900F5CF51
:103DE00073F00900F5CF74F00A00F5CF75F0000EFE
:103DF000696F640E686F8F51666F676B66BF670788
:103E000082EC29F0120E000166276651040D010EA6
:103E1000F324F66E0F0EF420F76E0900F5CF6EF066
:103E20000900F5CF6FF00900F5CF70F00A00F5CF6B
:103E300071F086EC19F06EC08BF06FC08CF070C022
:103E40008DF071C08EF08BC06EF08CC06FF08DC0A5
:103E500070F08EC071F0000E0001636F0A0E626F89
:103E60008F51606F616B60BF6107E5EC29F0000165
:103E70006051040D010EF324F66E0F0EF420F76E60
:103E80000900F5CF72F00900F5CF73F00900F5CF06
:103E900074F00A00F5CF75F086EC19F06EC087F06B
:103EA0006FC088F070C089F071C08AF0C4EF1FF055
:103EB0008F51800A750FD8A060EF1FF062EF1FF0DE
:103EC000B0EF1FF0000E696F0A0E686F8F51666FBA
:103ED000676B66BF670782EC29F0090E0001662751
:103EE0006651040D010EF324F66E0F0EF420F76EEA
:103EF0000900F5CF6EF00900F5CF6FF00900F5CF9E
:103F000070F00A00F5CF71F0000E636F0A0E626F59
:103F10008F51606F616B60BF6107E5EC29F00001B4
:103F20006051040D010EF324F66E0F0EF420F76EAF
:103F30000900F5CF72F00900F5CF73F00900F5CF55
:103F400074F00A00F5CF75F086EC19F06EC087F0BA
:103F50006FC088F070C089F071C08AF0C4EF1FF0A4
:103F60008F51040D010EF324F66E0F0EF420F76E40
:103F70000900F5CF87F00900F5CF88F00900F5CFEB
:103F800089F00A00F5CF8AF012001FEF21F02BEC28
:103F900025F05BEC2EF00001DC6FDCC0FBF020EEC6
:103FA000FBF0DF50D8B4D7EF1FF0D9EF1FF044EF8C
:103FB00021F0010EE8CFFAF044EF21F0C50E000128
:103FC000646F920E40EC2EF00001DC6FDCC0FCF060
:103FD000C50E646F900E40EC2EF00001DC6FDCC06B
:103FE000FDF020EEFCF0DF50D8B4F9EF1FF0FBEF4E
:103FF0001FF00CEF20F020EEFDF0DF50D8B403EFFF
:1040000020F005EF20F00CEF20F0020EE8CFFAF0E0
:10401000899A899644EF21F020EEFCF0DF50D8A475
:1040200014EF20F016EF20F019EF20F0898A44EF0A
:1040300021F0898644EF21F082AA21EF20F023EFBE
:1040400020F02CEF20F0010EE8CF0EF18A88030E4D
:10405000E8CFFAF044EF21F0000EE8CF0EF1E2ECE9
:1040600025F0020EE8CFFAF044EF21F00001F851FC
:10407000D8B43DEF20F03FEF20F044EF20F0040EE5
:10408000E8CFFAF044EF21F021EEAAF0DF50D8B4E7
:104090004CEF20F04EEF20F05DEF20F021EE01F02C
:1040A000DF50D8A456EF20F058EF20F05DEF20F05D
:1040B000070EE8CFFAF044EF21F0050EE8CFFAF052
:1040C00044EF21F06CEC2CF01CEC0DF00001DC6FE7
:1040D000DCC0FEF020EEFEF0DF50D8B472EF20F02E
:1040E00074EF20F07AEF20F08A8A050EE8CFFAF01C
:1040F00044EF21F08A9A020EE8CFFAF0000EE8CFE2
:1041000002F1CD0EE8CF03F1CC0EE8CF04F1CC0ED6
:10411000E8CF05F13D0EE8CF06F1010EE8CF07F13B
:10412000000EE8CF08F1899A89968994899289903E
:104130008A968A948A9244EF21F020EEFEF0DF50B6
:10414000D8B4A5EF20F0A7EF20F0CDEF20F021EEBE
:1041500000F0DF50D8B4AFEF20F0B1EF20F0B7EFB0
:1041600020F0000EE8CF00F1060EE8CFFAF021EEC5
:10417000AAF0DF50D8B4BFEF20F0C1EF20F044EF39
:1041800021F021EE01F0DF50D8B4C9EF20F0CBEFE1
:1041900020F044EF21F058EF20F08A9A020EE8CF89
:1041A000FAF0000EE8CF02F1899A899689948992F3
:1041B00089908A968A948A9244EF21F056EC24F0F2
:1041C0000001DC6FDCC0AAF121EEAAF0DF50D8B408
:1041D000ECEF20F0EEEF20F044EF21F058EF20F06C
:1041E00021EE01F0DF50D8B4F8EF20F0FAEF20F024
:1041F00031EF20F0000EE8CF01F1000EE8CFAAF178
:10420000210E0001616F010E626FA9C163F0FFEC26
:104210002BF00001DC6FDCC0ABF121EEABF0DF5026
:10422000D8B415EF21F017EF21F044EF21F0000E84
:10423000E8CFABF1020EE8CFFAF044EF21F020EE28
:10424000FAF0DF50000AD8B4C7EF1FF0010AD8B463
:10425000DEEF1FF0030AD8B41CEF20F0010AD8B437
:1042600036EF20F0070AD8B462EF20F0010AD8B484
:104270009DEF20F0030AD8B4DEEF20F0010AD8B495
:10428000F0EF20F044EF21F012000001936F6D0E6B
:10429000000193654EEF21F050EF21F002EF22F084
:1042A000000E726F000E736F000E746F3F0E756F0D
:1042B000000E686F640E676F93C065F0666B2CEC40
:1042C0002BF00001D89065376637D8906537663790
:1042D000480E6527000E6623350E6525F66E0F0E17
:1042E0006621F76E0900F5CF6EF00900F5CF6FF08B
:1042F0000900F5CF70F00A00F5CF71F086EC19F0E7
:104300006EC08FF06FC090F070C091F071C092F0ED
:10431000000E0001686F0A0E676F000E636F640E77
:10432000626F93C060F0616B9CEC2BF060C065F035
:1043300061C066F02CEC2BF00001D8906537663731
:10434000D89065376637240E6527000E6623350E34
:104350006525F66E0F0E6621F76E0900F5CF72F037
:104360000900F5CF73F00900F5CF74F00A00F5CF1E
:1043700075F08FC06EF090C06FF091C070F092C079
:1043800071F086EC19F06EC08BF06FC08CF070C0CD
:104390008DF071C08EF08BC06EF08CC06FF08DC050
:1043A00070F08EC071F0000E0001636F0A0E626F34
:1043B00093C060F0616B9CEC2BF00001D8906037EB
:1043C0006137D89060376137350E6025F66E0F0E75
:1043D0006121F76E0900F5CF72F00900F5CF73F097
:1043E0000900F5CF74F00A00F5CF75F086EC19F0EE
:1043F0006EC087F06FC088F070C089F071C08AF01D
:104400009FEF22F00A0E936508EF22F00AEF22F0E8
:1044100079EF22F0000E726F000E736F000E746F52
:104420003F0E756F000E686F0A0E676F93C065F0E0
:10443000666B2CEC2BF00001D89065376637D8906E
:1044400065376637240E6527000E6623350E652511
:10445000F66E0F0E6621F76E0900F5CF6EF00900BB
:10446000F5CF6FF00900F5CF70F00A00F5CF71F0CD
:1044700086EC19F06EC08FF06FC090F070C091F0B4
:1044800071C092F08FC06EF090C06FF091C070F06C
:1044900092C071F0000E0001636F0A0E626F93C04C
:1044A00060F0616B9CEC2BF00001D89060376137B5
:1044B000D89060376137350E6025F66E0F0E61219A
:1044C000F76E0900F5CF72F00900F5CF73F009001F
:1044D000F5CF74F00A00F5CF75F086EC19F06EC0D8
:1044E00087F06FC088F070C089F071C08AF09FEFCC
:1044F00022F09351040D350EF324F66E0F0EF420C6
:10450000F76E0900F5CF6EF00900F5CF6FF00900E6
:10451000F5CF70F00A00F5CF71F0000E726F000E4B
:10452000736F000E746F3F0E756F86EC19F06EC0DE
:1045300087F06FC088F070C089F071C08AF01200F7
:104540000001686F00016851D8B4A9EF22F0ABEF09
:1045500022F0CDEF22F063BFB2EF22F0B0EF22F0F5
:10456000CDEF22F060C064F061C065F062C066F01B
:1045700063C067F0641F651F661F671F642B000E12
:1045800065236623672364C06AF065C06BF066C06C
:104590006CF067C06DF0D5EF22F060C06AF061C0CA
:1045A0006BF062C06CF063C06DF06051611162111C
:1045B0006311D8A4DEEF22F0E0EF22F0EAEF22F060
:1045C000000E606F000E616F000E626F000E636F71
:1045D0007BEF23F0960E696FF4EF22F0692BD890F1
:1045E0006D336C336B336A33000E6A15646F000EE3
:1045F0006B15656F000E6C15666FFE0E6D15676F9F
:104600006451651166116711D8A409EF23F00BEF0F
:1046100023F0EEEF22F019EF23F0692B010E6A2749
:10462000000E6B236C236D23D8906D336C336B338A
:104630006A33000E6A15646F000E6B15656F000E0D
:104640006C15666FFF0E6D15676F6451651166110D
:104650006711D8A42EEF23F030EF23F00DEF23F0F5
:1046600038EF23F06907D8906A376B376C376D37AE
:104670006CBF3DEF23F03FEF23F047EF23F0020E36
:10468000696145EF23F047EF23F032EF23F069B182
:104690004CEF23F04EEF23F04FEF23F06C9FD890B8
:1046A000693369C064F0656B666B676B64C067F003
:1046B000666B656B646B64516A1365516B1366516D
:1046C0006C1367516D136851D8B469EF23F06BEF29
:1046D00023F073EF23F063BF72EF23F070EF23F04A
:1046E00073EF23F06D8F6AC060F06BC061F06CC037
:1046F00062F06DC063F01200096E0950D8B483EF08
:1047000023F085EF23F0A7EF23F004BE8CEF23F016
:104710008AEF23F0A7EF23F001C005F002C006F0F6
:1047200003C007F004C008F0051E061E071E081E81
:10473000052A000E06220722082205C00BF006C03B
:104740000CF007C00DF008C00EF0AFEF23F001C071
:104750000BF002C00CF003C00DF004C00EF00150CD
:10476000021003100410D8A4B8EF23F0BAEF23F01E
:10477000C4EF23F0000E016E000E026E000E036EF9
:10478000000E046E55EF24F0960E0A6ECEEF23F065
:104790000A2AD8900E320D320C320B32000E0B1456
:1047A000056E000E0C14066E000E0D14076EFE0E44
:1047B0000E14086E0550061007100810D8A4E3EF79
:1047C00023F0E5EF23F0C8EF23F0F3EF23F00A2AFC
:1047D000010E0B26000E0C220D220E22D8900E3256
:1047E0000D320C320B32000E0B14056E000E0C1441
:1047F000066E000E0D14076EFF0E0E14086E0550A7
:10480000061007100810D8A408EF24F00AEF24F0CF
:10481000E7EF23F012EF24F00A06D8900B360C369F
:104820000D360E360DBE17EF24F019EF24F021EFF0
:1048300024F0020E0A601FEF24F021EF24F00CEFA9
:1048400024F00AB026EF24F028EF24F029EF24F01A
:104850000D9ED8900A320AC005F0066A076A086AF7
:1048600005C008F0076A066A056A05500B12065073
:104870000C1207500D1208500E120950D8B443EF15
:1048800024F045EF24F04DEF24F004BE4CEF24F06B
:104890004AEF24F04DEF24F00E8E0BC001F00CC057
:1048A00002F00DC003F00EC004F01200000EE8CFBD
:1048B000A9F121EEA9F0DF500001D96FDA6B210ECA
:1048C000D925D96E010EDA21DA6E2A0EDF6EA9C162
:1048D000E8FF010FE8CFA9F1000EDB6FA9C1E8FFE7
:1048E000010AD8A476EF24F078EF24F0C4EF24F086
:1048F000A10EDB25D96EDA6A010EDA22DF50D8B4B8
:1049000084EF24F086EF24F00EEF25F021EEA9F0DD
:10491000DF50D96FDA6B210ED925AC6F010EDA2189
:10492000AD6F920EAE6F0F0EAF6F010EDB25B06F45
:10493000B16B000EB123DB510A0DB20EF324D96E18
:10494000010EF420DA6EDECFB2F0DECFB3F0DECFB0
:10495000B4F0DECFB5F0DB510A0DAE0EF324D96E04
:10496000010EF420DA6EDECFB6F0DECFB7F0DECF88
:10497000B8F0DECFB9F0D0EC07F021EEA9F00001DD
:10498000AC51DF260EEF25F0A10EDB25D96EDA6AD9
:10499000010EDA22DF50D8B4D0EF24F0D2EF24F0A9
:1049A0000EEF25F021EEA9F0DF50D96FDA6B210E62
:1049B000D925AC6F010EDA21AD6F910EAE6F0F0EDF
:1049C000AF6F010EDB25B06FB16B000EB123DB5171
:1049D0000A0DB20EF324D96E010EF420DA6EDECF8A
:1049E000B2F0DECFB3F0DECFB4F0DECFB5F0DB5106
:1049F0000A0DAE0EF324D96E010EF420DA6EDECF6E
:104A0000B6F0DECFB7F0DECFB8F0DECFB9F0D0EC45
:104A100007F021EEA9F00001AC51DF26DB2B070ED9
:104A2000DB6515EF25F017EF25F06EEF24F021EE92
:104A3000A9F0DF50D96FDA6B210ED925D96E010E9E
:104A4000DA21DA6E3B0EDF6EA9C1E8FF010FE8CF75
:104A5000A9F1010E1200000EE8CFFAF08A988A9AA6
:104A6000000EE8CF00F1000EE8CF10F1000EE8CF05
:104A70000FF1000EE8CF11F1000E00016E6F000E75
:104A80006D6F120E6D25D96E010E6E21DA6E300E2D
:104A9000DF6E6D4B6E2B6EBF57EF25F06E5109E147
:104AA0000F0E6D5DD8A057EF25F059EF25F041EFBF
:104AB00025F0000EE8CF02F1000EE8CF09F1000E5C
:104AC000E8CF0AF1CD0EE8CF03F1CC0EE8CF04F128
:104AD000CC0EE8CF05F13D0EE8CF06F1010EE8CF90
:104AE00007F1000EE8CF08F17AEC2EF05BEC2EF027
:104AF000F50E0001626F920E8DEC2CF0920E67ECB9
:104B00002BF0000164C0ACF165C0ADF1E50E626F41
:104B1000920E8DEC2CF0920E67EC2BF0000164C02D
:104B2000B6F165C0B7F1D50E626F920E8DEC2CF028
:104B3000920E67EC2BF0000164C0C0F165C0C1F1BA
:104B4000C50E626F920E8DEC2CF0920E67EC2BF07E
:104B5000000164C0CAF165C0CBF1F50E626F900E22
:104B60008DEC2CF0900E67EC2BF0000164C0D4F1BA
:104B700065C0D5F1E50E626F900E8DEC2CF0900EB5
:104B800067EC2BF0000164C0DEF165C0DFF1D50EEB
:104B9000626F900E8DEC2CF0900E67EC2BF0000104
:104BA00064C0E8F165C0E9F1C50E626F900E8DEC4E
:104BB0002CF0900E67EC2BF0000164C0F2F165C0A0
:104BC000F3F112008A988A9A000EE8CF02F1CD0E16
:104BD000E8CF03F1CC0EE8CF04F1CC0EE8CF05F11D
:104BE0003D0EE8CF06F1010EE8CF07F1000EE8CF49
:104BF00008F1000EE8CF09F1000EE8CF0AF1000E2F
:104C0000E8CF00F1000EE8CFFEF0000EE8CF01F192
:104C1000000EE8CFAAF1000EE8CFABF1000EE8CF0E
:104C200010F1000EE8CF0FF1000EE8CF11F1000EE9
:104C30000001696F000E686F68C060F069C061F0C4
:104C4000000E636F0A0E626FBAEC2DF0B20E000117
:104C50006025D96E010E6121DA6E000EDE6E000E47
:104C6000DE6E000EDE6E000EDD6E68C060F069C0A4
:104C700061F0000E636F0A0E626FBAEC2DF0AE0E9B
:104C800000016025D96E010E6121DA6E000EDE6E24
:104C9000000EDE6E000EDE6E000EDD6EA10E6825CB
:104CA000D96E010E6921DA6E000EDF6E684B692B3A
:104CB00069BF64EF26F0695109E1080E685DD8A06C
:104CC00064EF26F066EF26F01CEF26F0000E676F0B
:104CD000000E666F120E6625D96E010E6721DA6E20
:104CE000300EDF6E664B672B67BF80EF26F0675193
:104CF00009E10F0E665DD8A080EF26F082EF26F066
:104D00006AEF26F0899A89968994899289908A9681
:104D10008A948A9277EC2EF07AEC2EF0120062C020
:104D200068F00001696B6A6B6135683701E369817E
:104D30006851706F7051D8A4A0EF26F0A2EF26F052
:104D4000ACEF26F0000E606F000E616F000E626F18
:104D5000000E636F3AEF27F066C068F0696B6A6B0C
:104D60006535683701E3698168516F6F6F51D8A469
:104D7000BCEF26F0BEEF26F0C0EF26F0A2EF26F043
:104D8000618FFF0E6017FF0E6117000E6217658FAF
:104D9000FF0E6417FF0E6517000E6617000E6B6F8F
:104DA000000E6C6F000E6D6F000E6E6F7F0E705FE9
:104DB0006F51980F705F180E6F6FD8906B376C370C
:104DC0006D376E376451605D655161596651625946
:104DD000D8A0EDEF26F0EFEF26F0F6EF26F06451C5
:104DE000605F6551615B6651625B6B81D890603733
:104DF000613762376F2FDDEF26F070BF04EF27F0C9
:104E000002EF27F01AEF27F07051800A970FD8B001
:104E10000CEF27F00EEF27F010EF27F0A2EF26F0AF
:104E2000D8906E336D336C336B33703F10EF27F0D7
:104E300032EF27F0170E706520EF27F022EF27F0F2
:104E40002AEF27F0A2EF26F0D8906B376C376D373A
:104E50006E3770077051D8A430EF27F032EF27F08B
:104E600024EF27F06BC060F06CC061F06DC062F0A1
:104E70006EC063F012000001623563356D6F6D51D5
:104E8000D8A445EF27F047EF27F051EF27F0000EA9
:104E9000606F000E616F000E626F000E636FE1EFD6
:104EA00027F0663567356C6F6C51D8A45AEF27F040
:104EB0005CEF27F05EEF27F047EF27F0628FFF0EE1
:104EC0006017FF0E6117FF0E6217000E6317668FE3
:104ED000FF0E6417FF0E6517FF0E6617000E6717AB
:104EE000000E686F000E696F000E6A6F000E6B6F28
:104EF0007F0E6D5F6C51A00F6D5F200E6C6FD890B0
:104F0000683769376A376B376451605D655161593D
:104F10006651625967516359D8A091EF27F093EF1A
:104F200027F09CEF27F06451605F6551615B66512B
:104F3000625B6751635B6881D89060376137623725
:104F400063376C2F7FEF27F06DBFABEF27F0A9EF32
:104F500027F0C1EF27F06D51800A9F0FD8B0B3EF53
:104F600027F0B5EF27F0B7EF27F047EF27F0D890FD
:104F70006B336A33693368336D3FB7EF27F0D9EF8E
:104F800027F01F0E6D65C7EF27F0C9EF27F0D1EFAF
:104F900027F047EF27F0D890683769376A376B37C3
:104FA0006D076D51D8A4D7EF27F0D9EF27F0CBEFDD
:104FB00027F068C060F069C061F06AC062F06BC041
:104FC00063F01200110E0001616F3C0E606FCB0E9A
:104FD000E82EFED7602FFCD7612FFAD78A88110EF2
:104FE0000001616F3C0E606FCB0EE82EFED7602F84
:104FF000FCD7612FFAD78A8A110E0001616F3C0E2F
:10500000606FCB0EE82EFED7602FFCD7612FFAD74A
:10501000898A110E0001616F3C0E606FCB0EE82E85
:10502000FED7602FFCD7612FFAD78986110E0001B9
:10503000616F3C0E606FCB0EE82EFED7602FFCD761
:10504000612FFAD78984110E0001616F3C0E606FE9
:10505000CB0EE82EFED7602FFCD7612FFAD78982BE
:10506000110E0001616F3C0E606FCB0EE82EFED773
:10507000602FFCD7612FFAD78980110E0001616F74
:105080003C0E606FCB0EE82EFED7602FFCD7612F51
:10509000FAD78A86110E0001616F3C0E606FCB0E4D
:1050A000E82EFED7602FFCD7612FFAD78A84110E25
:1050B0000001616F3C0E606FCB0EE82EFED7602FB3
:1050C000FCD7612FFAD78A82290E0001616F960EF4
:1050D000606F7F0EE82EFED7602FFCD7612FFAD7C6
:1050E0008A988A9A899A89968994899289908A96C7
:1050F0008A948A921200000192359335996F9951E2
:10510000D8A485EF28F087EF28F091EF28F0000E63
:10511000906F000E916F000E926F000E936FFEEF76
:1051200028F090C094F091C095F092C096F093C092
:1051300097F0200EA1EF28F0D8909733963395334F
:105140009433E82E9CEF28F09451986F928FFF0EC5
:105150009017FF0E9117FF0E9217000E9317960EE1
:10516000995F99BFB8EF28F0B6EF28F0CEEF28F09E
:105170009951800A970FD8B0C0EF28F0C2EF28F0FD
:10518000C4EF28F087EF28F0D8909333923391330F
:105190009033993FC4EF28F0E6EF28F01F0E996591
:1051A000D4EF28F0D6EF28F0DEEF28F087EF28F0D4
:1051B000D890903791379237933799079951D8A45F
:1051C000E4EF28F0E6EF28F0D8EF28F09851D8B4B3
:1051D000ECEF28F0EEEF28F0F6EF28F0931F921F87
:1051E000911F906D000E91239223932390C090F015
:1051F00091C091F092C092F093C093F01200000E13
:1052000000016015686F000E6115696F800E6215F0
:105210006A6F7F0E63156B6F685169116A116B11AC
:10522000D8A415EF29F017EF29F01FEF29F0000E91
:10523000606F000E616F000E626F000E636F000EF4
:105240006415686F000E6515696F800E66156A6FCC
:105250007F0E67156B6F685169116A116B11D8A4C5
:1052600034EF29F036EF29F03EEF29F0000E646F9D
:10527000000E656F000E666F000E676F63AF43EF41
:1052800029F045EF29F04EEF29F0606D611FD8B08D
:10529000612B621FD8B0622B800E635767AF53EF4C
:1052A00029F055EF29F05EEF29F0646D651FD8B045
:1052B000652B661FD8B0662B800E6757000E601BEB
:1052C000000E611B000E621B800E631B000E641B30
:1052D000000E651B000E661B800E671B6451605D2F
:1052E000655161596651625967516359D8B07BEF76
:1052F00029F07DEF29F080EF29F0D89081EF29F097
:10530000D8801200000E00016B6F69BF8CEF29F08E
:105310008AEF29F092EF29F0686D691FD8B0692BE8
:10532000010E6B6F67BF99EF29F097EF29F09FEFA0
:1053300029F0666D671FD8B0672B010E6B1B000E3E
:105340006D6F000E6C6F68516911D8B4AAEF29F027
:10535000ACEF29F0D4EF29F0010E6A6FB4EF29F019
:10536000D890683769376A2B69AFB9EF29F0BBEF7E
:1053700029F0B0EF29F0D8906C376D376851665D31
:1053800069516759D8A0C7EF29F0C9EF29F0CEEFCE
:1053900029F06851665F6951675B6C81D890693309
:1053A00068336A2FBBEF29F06B51D8B4DAEF29F0DC
:1053B000DCEF29F0E0EF29F06C6D6D1FD8B06D2B9C
:1053C0006CC066F06DC067F01200000E0001656FE2
:1053D00061BFEFEF29F0EDEF29F0F5EF29F0606DF7
:1053E000611FD8B0612B010E656F63BFFCEF29F020
:1053F000FAEF29F000EF2AF0626D631FD8B0632B3B
:1054000062516311D8B407EF2AF009EF2AF02DEFAB
:105410002AF0010E646F11EF2AF0D89062376337DB
:10542000642B63AF16EF2AF018EF2AF00DEF2AF085
:105430006251605D63516159D8A021EF2AF023EFDA
:105440002AF027EF2AF06251605F6351615BD890C8
:1054500063336233642F18EF2AF06551D8B433EF09
:105460002AF035EF2AF039EF2AF0606D611FD8B0CD
:10547000612B60C060F061C061F01200000E00019D
:105480006015686F000E6115696F800E62156A6F96
:105490007F0E63156B6F685169116A116B11D8A487
:1054A00054EF2AF056EF2AF05EEF2AF0000E606FFC
:1054B000000E616F000E626F000E636F000E6415C8
:1054C000686F000E6515696F800E66156A6F7F0E36
:1054D00067156B6F685169116A116B11D8A473EF6E
:1054E0002AF075EF2AF07DEF2AF0000E646F000EAF
:1054F000656F000E666F000E676F645160190FE1F3
:10550000655161190CE16651621909E1675163192E
:10551000D8B48DEF2AF08FEF2AF092EF2AF0D890CE
:1055200093EF2AF0D8801200000E0001686F000E81
:10553000696F000E6A6F000E6B6F64516511661122
:105540006711D8B4A6EF2AF0A8EF2AF0DEEF2AF010
:10555000010E6C6FB2EF2AF0D8906437653766376A
:1055600067376C2B67AFB7EF2AF0B9EF2AF0ACEFD3
:105570002AF0D890683769376A376B376451605DB5
:10558000655161596651625967516359D8A0CBEF93
:105590002AF0CDEF2AF0D6EF2AF06451605F655112
:1055A000615B6651625B6751635B6881D89067336A
:1055B0006633653364336C2FB9EF2AF068C060F04E
:1055C00069C061F06AC062F06BC063F01200000154
:1055D0007151721173117411D8B4F1EF2AF0F3EF15
:1055E0002AF023EF2BF0010E756FFDEF2AF0D89013
:1055F0007137723773377437752B74AF02EF2BF036
:1056000004EF2BF0F7EF2AF071516D5D72516E5976
:1056100073516F5974517059D8A011EF2BF013EFDB
:105620002BF01BEF2BF071516D5F72516E5B73515C
:105630006F5B7451705BD890743373337233713312
:10564000752F04EF2BF06DC06DF06EC06EF06FC063
:105650006FF070C070F01200000E00016A6F000E53
:10566000696F67516811D8B438EF2BF03AEF2BF01F
:1056700062EF2BF0010E6B6F42EF2BF0D890673783
:1056800068376B2B68AF47EF2BF049EF2BF03EEFFD
:105690002BF0D89069376A376751655D6851665954
:1056A000D8A055EF2BF057EF2BF05CEF2BF06751A4
:1056B000655F6851665B6981D890683367336B2F8B
:1056C00049EF2BF069C065F06AC066F01200000176
:1056D0006C6F67EC2EF0CEEC2DF000016C5149ECB4
:1056E0002EF0CEEC2DF0000E49EC2EF0CEEC2DF08D
:1056F0005FEC2EF0CEEC2DF000016C51010949EC6D
:105700002EF0CEEC2DF0010E4AEC2CF000016A6F69
:10571000000E4AEC2CF000016B6F6A51666F6B5102
:10572000686F66C069F063EC2EF0CEEC2DF068C0B7
:1057300064F069C065F01200000162516311D8B4D1
:10574000A4EF2BF0A6EF2BF0CAEF2BF0010E646F45
:10575000AEEF2BF0D89062376337642B63AFB3EFB3
:105760002BF0B5EF2BF0AAEF2BF06251605D635187
:105770006159D8A0BEEF2BF0C0EF2BF0C4EF2BF097
:105780006251605F6351615BD89063336233642F11
:10579000B5EF2BF060C060F061C061F012000D6EDB
:1057A00073EC2EF0F6EC2DF00D5050EC2EF0F6ECE4
:1057B0002DF0000E50EC2EF0F6EC2DF06BEC2EF0F0
:1057C000F6EC2DF00D50010950EC2EF0F6EC2DF01A
:1057D000010EADEC2CF00B6E000EADEC2CF00C6E4F
:1057E0000B50076E0C50096E07C00AF06FEC2EF0DC
:1057F000F6EC2DF009C005F00AC006F01200000E0C
:105800000001686F000E676F12EF2CF06751612581
:10581000D96E68516221DA6EDF5015EC2EF000016E
:10582000674B682B6351646F656B6451675D6851AA
:10583000800A666F6551800A6659D8A022EF2CF065
:1058400024EF2CF006EF2CF0010E1200000E0001E8
:10585000A81B000EA91B000EAA1B800EAB1BA4C028
:1058600094F0A5C095F0A6C096F0A7C097F0A8C088
:1058700098F0A9C099F0AAC09AF0ABC09BF0C5EC13
:1058800014F094C0A4F095C0A5F096C0A6F097C0FF
:10589000A7F012000001626FCEEC2DF0C586CEECB1
:1058A0002DF0C9CF63F0CEEC2DF000016251D8B4D9
:1058B0005CEF2CF060EF2CF0616B612B62EF2CF051
:1058C0000001616B613B6147C5506119DF0B6119D4
:1058D000C56EC588635112000001F851D8B473EF4A
:1058E0002CF075EF2CF06CEF2CF0DD0EF925D96E55
:1058F000DA6A000EDA22DF50606FF92B1A0EF965B2
:1059000084EF2CF086EF2CF088EF2CF0000EF96F6E
:105910009D9AF8079D8A605112000001636F67EC41
:105920002EF0CEEC2DF00001635149EC2EF0CEECC0
:105930002DF0010E49EC2EF0CEEC2DF0000162515D
:1059400049EC2EF0CEEC2DF0E30E49EC2EF063EC9A
:105950002EF0CEEC2DF0010E1200036EF6EC2DF0C1
:10596000C586F6EC2DF0C9CF04F0F6EC2DF003500F
:10597000D8B4BDEF2CF0C1EF2CF0026A022AC2EFBE
:105980002CF0026A023A0246C5500218DF0B0218D8
:10599000C56EC58804501200ABA2D1EF2CF0D3EF36
:1059A0002CF0D5EF2CF0AB98AB88DD0E3B24D96EF4
:1059B000DA6A000EDA22AECFDFFF3B2A1A0E3B6412
:1059C000E4EF2CF0E6EF2CF0E8EF2CF0000E3B6E4D
:1059D0000001F82B1200000EAA6EB10ECF6EE00E81
:1059E000CE6ECE50CFCF62F00001636B62C063F029
:1059F000626B6211376E6351386E9E909D80060E09
:105A0000606F5D0E616F56EC2EF0350ECD6E12009C
:105A100000016051611162116311D8B412EF2DF0D1
:105A200014EF2DF01CEF2DF0000E601B000E611B1B
:105A3000000E621B800E631B60C060F061C061F0ED
:105A400062C062F063C063F01200046E73EC2EF06B
:105A5000F6EC2DF0045050EC2EF0F6EC2DF0010E8B
:105A600050EC2EF0F6EC2DF0035050EC2EF0F6EC4E
:105A70002DF0E30E50EC2EF06FEC2EF0F6EC2DF046
:105A800012000001626F000E0001616F3A0E626148
:105A90004CEF2DF04EEF2DF058EF2DF02F0E6265EC
:105AA00054EF2DF056EF2DF058EF2DF0010E616FF1
:105AB00061C060F0603112009E9037C001F038C0C4
:105AC00002F0E2EC2DF0394A3A2A3A5009E10A0E86
:105AD000395CD8A06EEF2DF070EF2DF076EF2DF041
:105AE00035EC11F0000E3A6E000E396E120000EE29
:105AF000FAF011EE02F0EE6AE550E150FCE1E250FE
:105B0000FAE100EEDDF01D0EEE6AE806FDE13B6A0B
:105B10003A6A396A3C903C92000EF86E000109EF37
:105B20002EF0000E896E000E8A6E180E8B6E000E1F
:105B3000926E000E936EB80E946E000E0F015D6FA4
:105B4000000E5C6F000E5B6FF18E12009D9A080EC6
:105B5000A76E900EAB6EA40EAC6E150EAF6E010E5E
:105B60007D6E000E3B6E000E0001F96F000EF86FA7
:105B70009D8A1200000160516203F3CF64F0F4CFFC
:105B800065F060516303F350652761516203F35080
:105B9000652764C060F065C061F01200C5CF60F099
:105BA0001F0E00016017D8A4D8EF2DF0DAEF2DF00A
:105BB000CEEF2DF0C7B4DFEF2DF0E1EF2DF0CEEFFB
:105BC0002DF01200CDA4E7EF2DF0E9EF2DF0F1EF6D
:105BD0002DF0CD900250CF6E01C0CEFFCD80F5EFFD
:105BE0002DF00250CF6E01C0CEFF1200C5CF01F0E4
:105BF0001F0E0116D8A4FFEF2DF001EF2EF0F6EFE7
:105C00002DF0C7B406EF2EF008EF2EF0F6EF2DF0D2
:105C1000120021EC2EF0F28EF28CE2EC27F0C5ECB3
:105C20001FF00FEF2EF052EF00F00001606F9EA802
:105C30001CEF2EF01EEF2EF017EF2EF060C0ADFF20
:105C400012007DEC2EF091EC2DF037EC2EF0EBEC09
:105C50002CF0A6EC2DF0120094869488800EC76E6E
:105C6000280EC66E000EC56E270EC86E1200740E8A
:105C7000D36E000ED26E400E9B6E000E9A6E120016
:105C80000001656F64C062F0000165518DEC2CF07D
:105C900012000001616FCEEC2DF061C0C9FF12004F
:105CA000026EF6EC2DF002C0C9FF120060C035F0A4
:105CB00061C036F012002CEC2EF0010E1200CEEC7A
:105CC0002DF0C5821200CEEC2DF0C5841200CEEC72
:105CD0002DF0C5801200F6EC2DF0C5821200F6EC16
:105CE0002DF0C5841200F6EC2DF0C58012007FEC7B
:105CF0002EF0120081EC2EF01200D09E1200CD90FA
:085D00001200CD801200120018
:020000040020DA
:08000000FFFFFFFFFFFFFFFF00
:020000040030CA
:0E00000015027900FF8891FF0FC00FE00F403E
:00000001FF
